:10000000001C0020ED0200000000000000000000C5
:1000100000000000000000000000000000000000E0
:1000200000000000000000000000000000000000D0
:10003000000000000000000000000000B50100000A
:10004000E1010000FD010000B9010000CD01000048
:1000500000000000002934D00123002210B488429F
:100060002CD301242407A14204D2814202D20901E7
:100070001B01F8E7E400A14204D2814202D2490008
:100080005B00F8E7884201D3401A1A434C08A042AB
:1000900002D3001B5C0822438C08A04202D3001B41
:1000A0009C082243CC08A04202D3001BDC08224358
:1000B000002803D01B0901D00909E3E7101C10BC7C
:1000C0007047002801D00020C04307B4024802A1B5
:1000D0004018029003BDC046D90000000029F0D0AE
:1000E00003B5FFF7B9FF0EBC4243891A1847C04653
:1000F000002941D010B4041C4C40A4460123002226
:10010000002900D54942002800D5404288422CD31E
:1001100001242407A14204D2814202D209011B0119
:10012000F8E7E400A14204D2814202D249005B0018
:10013000F8E7884201D3401A1A434C08A04202D380
:10014000001B5C0822438C08A04202D3001B9C08C1
:100150002243CC08A04202D3001BDC082243002823
:1001600003D01B0901D00909E3E7101C6446002CE9
:1001700000D5404210BC7047002806D003DB0020A9
:10018000C043400801E08020000607B4024802A1F5
:100190004018029003BDC046190000000029EBD0B2
:1001A00003B5FFF7A7FF0EBC4243891A1847C046A4
:1001B0007047C046FEE70000034B01225A70A0239F
:1001C0000022DB051A7070476C0C0020034B0122E3
:1001D0009A70A0230022DB059A7070476C0C0020F7
:1001E00008B5044B01221A70034B0022DA7700F0A5
:1001F000EBFE08BD6C0C00200800005038B58025CF
:10020000ED052B79DBB2002B0CD130490B604B6034
:100210002B89081C9BB28B608A680C30103106F069
:10022000FBFF47E0012B0DD1284BD968002941D0B5
:100230005A68186982423DDA5A68501C58602B7A15
:100240008B5437E0022B30D1204CE368002B2AD0AE
:10025000226821698A420CDA22689B5C1BBAEB6037
:10026000A3682068C01880B207F020F82368013323
:1002700017E0A2682368201C211CD2180C30103112
:1002800006F0CAFFE368002B0DD0A16822688A1827
:10029000A2601B781BBAEB60A06880B207F006F87A
:1002A0000123236006E0EB6004E0032B02D1074B3F
:1002B00000225A60C0468023DB0501221A70C04626
:1002C00002221A7000221A7038BDC04614030020A2
:1002D00080230222DB05FF321A600421024AFF312B
:1002E000118000221A70704706000040F8B5A02364
:1002F000DB059B68494A1F21DBB21160D12B0BD073
:10030000D02B01D80133DBB2A022D2059168FF20A7
:10031000814319439160F1E70023414A41499A180A
:100320008A4204D24049C95804331160F5E73F4B73
:100330003F4A191D043B934203D200221A600B1C52
:10034000F6E7EFF308823B4B191D043B9A4203D9B1
:10035000394818600B1CF7E7FFF7BAFF37493848F0
:10036000053904F03DFB374C374D01235B422371C7
:100370006371A371E3712B1C3C331A782B1C3D3342
:100380001B7880B21B02134398423FD106F02CFF2A
:100390002E4B2F4918882F4A88420BD06E7D188823
:1003A0002B7D36023343984204D113889BB22371CC
:1003B0001B0A637113888B421BD0EE7DA87D1388C6
:1003C00036023043834214D100200423013BDBB2C8
:1003D000FF2B07D0204EEF18F65C3F79B742F5D1DE
:1003E0000120F3E7002804D013889BB2A3711B0AF5
:1003F000E371637922791B0213438B4206D0E279C1
:10040000A37912021A43124B9A4204D1134B0222CF
:100410001A6062B6FEE701F023F9F7E72800005002
:10042000000000201403002074A300001803002023
:10043000680C0020B40C0020CDCDCDCD00C0000054
:1004400000000000700C0020C0BF0000FEB30000E0
:10045000FFFF0000BEBF000000B4000000E100E0AC
:10046000014B18607047C046780C0020014B18689B
:100470007047C046780C0020014B18607047C0469A
:100480007C0C0020014B18687047C0467C0C002093
:10049000014B18687047C0460000002038B5134C67
:1004A000256804F0CBFE6862256804F0CBFEA862E4
:1004B000256804F0CBFE6861256804F0CBFEE86196
:1004C000256804F013FFA861256804F023FF084B9A
:1004D00008491B68096828621878097C226841432A
:1004E00002331161E832136038BDC04600000020BD
:1004F0007C0C0020780C002082B0F0B589B0109CF4
:10050000151C0F930693029407900E1C119C04F087
:100510001BFA47793A4B04978279964206D11B68B9
:100520000021DA69AB00D05A03910BE01A68354B11
:1005300052691968731C896803964B43EB180133A1
:100540009B00D05A0499714349194A00A418238882
:10055000069E0193019F7318874203D8C61B029F12
:10056000BE521CE0029EB61805960027F65F0136C3
:1005700010D01F787EB2B446013601DA013703E0AD
:100580006646002E06DD013F1F7002235B4223807A
:1005900001202FE0069F79180F78002F01D12080CD
:1005A0000CE07FB27C1C05D1019E059F301A38807B
:1005B000002002E0012F01D1FF2008701978039C70
:1005C000049E079F48B274437D19002805DC029EF3
:1005D000B25E013208D0002906D12A5700203E2AF7
:1005E00008DC0131197005E02A57002A01DD0139C4
:1005F0001970002009B0F0BC08BC02B01847C04612
:100600000000002000030020F0B58BB000AF04F024
:100610009BF906F097FE584C6E4623689D68DB6890
:100620007D625A00111C0E319B00C9080E33C900AF
:10063000DB08DB00761AB546F61A6D4600216846DF
:10064000B546BD61FE6009F07BF8002004F02EFF86
:100650007E6A4A4A20681568B20052420368BA604E
:10066000321C5A439100F961B107711A7960910700
:10067000891A3A62013B32D344683E6A3219261C19
:100680005E437618B400FE68920034197C61FC6900
:10069000A2420BD07C690426A418A4466C69764259
:1006A000A458B44466463460043AF0E7BE683A6A37
:1006B000A419FC617C6A7E68121B3A628919D9E729
:1006C0002F49F8697E23D2B25B4208704A708A7063
:1006D000CB7001205223BA690B7106F02BFD06F096
:1006E000FFFB0B2845D1002004F0E0FE224B1968E7
:1006F000224B08681C687B6AF86143439A003A629F
:100700009A07D21A3A617B61844666464A68013E7E
:10071000B446D5D3654655437E691A48B3181218B6
:100720005219BE6938695200B2182D18FE68AD0022
:1007300075199B003D603E6AB3420ED03D68E818D3
:10074000656904380668E858301A0025565F864205
:1007500000DA1080043B023AEDE7BD6876193E628C
:100760007D6A7E69761B7E617D683E6976193E6191
:10077000CBE7BD460BB0F0BD000300200000002019
:10078000C0030020FFFFFF7F08B502F047FB021EF9
:1007900005D10749A9230B7106F0CCFCFEE7054BF8
:1007A0001B6803CB04F0ACF9FFF778FE08BDC04628
:1007B000C703002000030020104B00221B6810B567
:1007C000191C88310A601C1C01219C344942181CE8
:1007D0002160A2600830083CE18222606283C26727
:1007E00090300160826008380183191CAC310260CE
:1007F00020390A8404330A60DA6710BD0000002043
:10080000F0B585B000AFB960386004F0DBFF83005D
:100810000A33DB08DB00041C6846C01A854604F076
:10082000D7FF63000833DB08DB006E46F11A8D4604
:100830006D46281C7D6004F0E5FF4D4B1B68191CBC
:1008400088310868632807DD0120002240420A60E1
:100850004861CA61191DCA67191C883108681A1CC9
:10086000013008320860D16F63290CDD012040425D
:100870008446181C002198306546D1678160056068
:10088000191D0120C867D16F0131D1671A1C94323C
:10089000106801280BDD012040428446181C00210D
:1008A000AA30654611601E38C58341840160116815
:1008B00001311160191C90310868012809DD0022FE
:1008C00001200A608A8340421A1C08838C3201216D
:1008D00011601A1C90321168013111600022101C45
:1008E000013C07D3A10071587D6840186100695A26
:1008F0005218F5E7191CAA310024A4251E19AC468C
:10090000B444FE6066463668864201D26546286079
:10091000FD689C352E68864200D928608D889542F6
:1009200000D28A800D88954200D90A80043C251C9B
:1009300002390835E1D11A1DD26F3E6892009A182B
:10094000111CA031983209681268BD688A1A328079
:100950001A1C8C321268BD4652009B181A1CAC320D
:10096000A83312881B88D31A2B8005B0F0BDC0466F
:1009700000000020F0B5234F1D1C3B68161CDA68F0
:1009800085B0019192000021041C301C08F0D8FEB3
:100990003B68281C1A690021920008F0D1FE019FD3
:1009A000002F0CD0201C04F081FD174B301C1B685D
:1009B000291C5A69DB6906F0CFFD013FF0E7002CE6
:1009C0000FD1114B1B685F699B69029304F024FCF3
:1009D000039004F02BFC0299031C039A381C06F0C8
:1009E000CFFC301C291C019A06F02CFE002C06D1ED
:1009F000054B201C1D6804F07FFEEC35286005B017
:100A0000F0BDC0460003002000000020F0B5274DD7
:100A100087B02B6805911A6A00219200039008F0B4
:100A20008FFE06F09BFC04904478002C25D0042017
:100A300004F03CFD286882690292029B013B01930D
:100A400019D3C3690199039E5943C91889007118C4
:100A50000439013B0DD38668029F7E439E19059F92
:100A60000136B600F2590E689446B44467460F60EA
:100A7000EEE7019AE0E7013CD7E72F68BD69013D49
:100A800011D3FC69039A261C6E433619B6009619D9
:100A9000043E013CF3D3049B30685978FFF7DAFA3F
:100AA00000043060F4E707B0F0BDC046000300204A
:100AB00030B5214D85B02B681A1CCC321178583ACC
:100AC000002904D1191CB0310978002901D0002176
:100AD00011701478002C1DD0996F002001915A6B71
:100AE00016490292DB6A01AA039303234B707C230D
:100AF0005B42CB7010230B7106F01CFB2B680024AB
:100B00009A6FD96F8A4202DC01329A6710E09C67C3
:100B100001240DE05A6BDB6A094901920293092016
:100B2000642301AA0B71039406F004FB2B689C67F5
:100B3000201C05B030BDC046000000200C01002084
:100B400013010020F0B58FB004AF7960BA617B610A
:100B5000B86006F003FC944B69461B6838611C685A
:100B6000F96104346400221C0832D208D200881AC9
:100B70005A68854604325200131C0833DB08DB0038
:100B8000C01A04AE854604AD281C002108F0D8FD2B
:100B9000221C301C002108F0D3FD844CB868236867
:100BA0005A69191C9B690090301D0190281D029004
:100BB0002C31B86903F0F6F83A69F8602368127BC3
:100BC0005869191C01960295009268312C33BA6954
:100BD00003F058FAFB6978689D462368DA69191CA6
:100BE0001B6A00902C31786903F032F8FE680643E6
:100BF000F6B23E6106F0BEFB051C06F0C9FE2D797B
:100C0000012D0AD19C300368002B06D106F086F92D
:100C1000012802D0281C04F08DF82568281C291C06
:100C200068312C3003F008FA614A23681268E866DC
:100C30000C20115E986D88420EDC0E20115ED86D7E
:100C4000884209DB1020115E186E884204DC1221F4
:100C5000525E5B6E934221DA00233B842022012303
:100C6000D35506F069F9002818D106F041F900289B
:100C700014D04E4B1A68FF239168FE2901DC93685B
:100C8000DBB22120C355381C0221203006F0F0F9D8
:100C9000484804F057FE03F04FFFE2E7424E464952
:100CA000336802241A6858680A709A68CB784870CA
:100CB0007F20834380256D4223432B43CB705323F6
:100CC0008A700B710132BB6952009A18012006F03C
:100CD00031FA336839491B697F204B70CB787A69C8
:100CE000834323432B43CB7001206D230B7106F00C
:100CF00021FA336820211A682120CA555968C15544
:100D00009A682220191CC255283109782320C15520
:100D10005B6925202421CB55C35D7F218B43234371
:100D20001D430132C319B869520082181D70391C65
:100D30000092002201202031131C06F0C1F902F0BC
:100D400009F802F03DF8FFF7B3FE002827D1174C51
:100D50002368586904F050FC2368D86E04F0ACFB9B
:100D600004F0B6F9396900290DD12368B9691A1C54
:100D70002C321B68B86806F06BFB236878681A6829
:100D8000796906F0B9FB022004F002F8786906F0F0
:100D900097FE2068703007F0B1FD002000E0201CB5
:100DA000BD460BB0F0BDC04600030020000000208F
:100DB0007C0C002010270000C00300200C01002044
:100DC000F0B59400231C0A3385B0DB08DB006946CC
:100DD000C91A02AF8D4602AA061C7A60101C0021B7
:100DE000221C08F0ADFC231C0833DB08DB0069463D
:100DF000C91A8D4602AD281C221C002108F0A0FC57
:100E00000C4C301C2368996A5A6A6833009101932C
:100E1000291C7B6807F094FD301C02F031F8236830
:100E2000301C5A6A9B6A291C00937B6806F0DCFF21
:100E3000BD46F7BD0000002070B50C1C151C1E1C23
:100E400007F01CFA144B201C1B68596A9A6A07F0B9
:100E50001BFB201C07F026FF201C07F011FC321C96
:100E6000201C291C07F0C8FC201C291C02F058FE7D
:100E700006F080FA041C06F08BFD8E300378002B00
:100E800009D12379002B06D006F048F8012802D0BA
:100E9000012003F04FFF70BD0000002038B508F0BE
:100EA00033FB051C012008F043FB041C281C03F045
:100EB00051FD201C03F05AFD38BD38B508F0DAFBAF
:100EC00008F02AFB051C002008F032FB041C281C3B
:100ED00003F040FD002004F039FB201C03F046FD28
:100EE00003F00AFF38BD10B5A4B08C22041C002109
:100EF00001A808F025FC01A8211C07F0B9FC07F0A7
:100F0000E1FC01A8211C02F021F824B010BD000072
:100F100038B506F03DFD294C8E30236801781A79EA
:100F2000002902D151B2481C04D10025DD60AA423B
:100F30000DD116E0D8681A69904202DAD8680130FB
:100F4000D86001290DD0DB6893420ADB01251C49DA
:100F500000202B1C0E33021C0B7106F0EBF82368EB
:100F60001D7123681A79002A03D1164A1268127873
:100F700004E0012A03D1134A126852781A601868F3
:100F800004F0BCFC2368051CEC33186804F0DAFCA0
:100F90002D1A002D0BDD2368186804F0AFFC2368C0
:100FA000051CEC33186804F0CDFC281A00E0012081
:100FB00003F0C0FE03F0E0FE38BDC0460000002094
:100FC000C70300207C0C002008B505F0A7FF00280F
:100FD00002D1022004F042FA08BD0000F0B589B049
:100FE000061C06F0C7F9059006F0D2FC031C9833E6
:100FF0001A68A14B002A08D1A0300268511E8A410C
:10100000D2B20492002A06D001E0012004901A68AE
:101010000021B83205E01A68B8321168FE2901DCF7
:10102000013111601B6800211A1CB432117004993F
:10103000002904D091490968097D00295AD0181C5B
:10104000B3300178C9B2002908D003785BB2022B13
:1010500000D0012313700023037070E11D1CB03514
:101060002C78002C09D0012414701A1CB132BC3326
:10107000017029701170196062E10498002839D15B
:10108000191CBC310C68002C09DD013C012C01D07D
:101090000C602FE0049B0B600323137050E11A1CBB
:1010A000E83212681188764A914223D01A1CC8325D
:1010B0001188744A126852888A421BD86F4C206883
:1010C000427C181CB8300068904213DB07AA1180DC
:1010D000CA331B886C49538002234B70CB70049831
:1010E00015230B7106F026F8634B22681B68927C6F
:1010F000BC331A60614C2768F87C002800D01EE1E0
:1011000004995D4D002900D082E02C68231CE73350
:101110001B78002B56D03B1C2C331B78002B51D056
:10112000231C0791DC331B680393231CC8330398EB
:101130001A8843009A533B1C2D33197804984B00AE
:10114000F618031C994206D05A00B21A023A1288C5
:1011500001338018F6E7FEF7CBFF0790FA8B231CCC
:10116000E033904202DA1A68013200E000221A608D
:101170003A1C2E3212781B68934215DD42497C23BB
:101180005B42CB7007AA1623012400200B714C7020
:1011900005F0D0FF2B6800201A1CDC32E033106011
:1011A000186006F009F8CBE03B1C2D331A78039940
:1011B000231C013ADC33914202DA0A1C013200E0BE
:1011C00000221A60C4340137FB7F22689A4217DB81
:1011D0002E4900201223021C0B7105F0ABFF2A6878
:1011E0002648131CC03319680068013119600230A9
:1011F000C07F814204DB00211960B43202231370E6
:101200002A680023111CB231C4320B70136047E00E
:101210002B681A1CBC3210602A321278002A3FD088
:10122000191CC831098807AA1180CA331B881649BE
:10123000538002234B70CB7019230B7105F07AFF9A
:101240002B682268191CC8310C88D08B163984424F
:101250001ED2181CCA300488508D844218D20978D6
:1012600000291DD1C43301321968D27F914217DAA7
:101270000131196014E0C04600000020780C002005
:10128000FFFF00007C0C00200C010020C7030020A1
:1012900001220A70191C0022C431C0330A601A608E
:1012A000294D2B681A1CE6321278002A47D105987E
:1012B0000279002A41D01A1CB0321478002C3ED199
:1012C000224ED86A3768798BBA8BFB8A3F8B00979E
:1012D00006F008F836682B68718CB28C071CD86A47
:1012E000F38C368D009605F0FDFF2B681A1CC83272
:1012F0001188CA33B94202DA1A88824210DB07AA7F
:1013000011801B881249538002234B70CB70002040
:1013100017230B7105F00EFF2B680122B1331A70F1
:101320002B681A1CB1321278002A08D004990029BF
:1013300005D0B03301221A7002E0B1331A700124D3
:10134000201C09B0F0BDC04600000020780C002031
:101350000C010020F0B591B002AF03F0F5FA061CC5
:1013600003F00AFB386103F0FBFAB04BB8601C686D
:101370006846E36800211A1C0E32D208D200801A97
:10138000226985460E32D208D200801A02AD854607
:10139000FD6102AD7D6272799A18131C0E33DB0871
:1013A000DB00C01A53000E33DB08DB008546C01A91
:1013B00002AD8546C01ABD6102AD854602A87861BE
:1013C000B86908F0BDF9E1687279281C521801214A
:1013D0005200494208F0B4F9E36872799449D2188E
:1013E0005200786908F0ACF9E2683969F8693D6340
:1013F00008F064F939692269BA31FF31786A40240A
:10140000002508F05BF9FC603D62796AF86905F037
:10141000E5F8032004F04AF8844D86492B68864C91
:101420005A6818684A709A680423CB7051230B716C
:1014300023688A705B690132920008709A18022052
:1014400005F078FE2B687D491B6904254B705A23F3
:101450000B7123680220DA69CD7005F06BFEB47958
:10146000013C631C2CD07579013D6A1CF8D073795E
:1014700078696343EB185B001A5A714B9A42F3D0B8
:10148000B96930227960F9627863D219694609CA6C
:1014900009C1211C7B68F8692A1CFFF72DF8002878
:1014A00003D03B6A01339BB23B627379BA696343F1
:1014B0003869EB18D15CC25C8A18F969CA54D3E761
:1014C000F479013C601C2FD0B17973797D694B436D
:1014D000E3185B005A5B5A4B9A42F2D0BD69302048
:1014E0007D60FD62C0197D6984467D636846624601
:1014F00028CA28C0221C7B68786AFEF7FDFF0028F6
:1015000003D03B6A01339BB23B627379B279BD6908
:101510005A432B193D699A5C2919BA31FF310B786E
:101520007D6AD3182B55CCE7404B3C6A1B68DA68C0
:101530001B69D3189C4206DAFB68013BDBB2FB60F7
:10154000002B00D061E73B4CB3797F252370737982
:1015500080206370A370E3784042AB4301252B43A6
:101560000343E3700820D223211CFA69237105F09C
:10157000E1FD3249F3797F224B70CB780820934309
:101580001D4380235B421D437A6AD323CD700B71C8
:1015900005F0D0FDB379251C013B0FD37279013AD8
:1015A000FAD37179FC69594389186118BC68E0184D
:1015B00064300C78007820180870F0E7F379013B6C
:1015C00008D3BC68E2187C6A7C321178E25C8A1825
:1015D000E254F4E7F869796A05F000F8B3797F20FE
:1015E0002B70737901216B70AB70EB78802483438F
:1015F0000B4364422343EB70291C1D23FA69082026
:101600002B7105F097FD0D49F3797F224B70CB7854
:10161000012593431D432C431E2308207A6ACC7076
:101620000B7105F087FDBD460FB0F0BD0003002033
:10163000FFFF0000C0030020000000200C0100207C
:10164000FEFF000008B503F08BF958300378002B3B
:1016500002D1FFF77FFE01E004F01EF908BD000093
:10166000F0B593B002AF05F03BFC2621C85507F05A
:1016700097FF07F0C5FF01F069FBFFF785F805F05C
:1016800081FB05F02DFC2722041CD055062800D133
:10169000D9E015D8022800D18AE007D8002827D041
:1016A000012800D0DBE105F077FC74E0042800D1CC
:1016B000B3E000D9BCE005F06FFCFFF7C3FFA5E085
:1016C000092800D1E3E008D8072800D1C7E008289E
:1016D00000D0C4E105F060FCCDE00B2800D1ADE105
:1016E00000D2E8E00C2800D0B9E105F055FCB0E1EB
:1016F00005F014FC002812D0012800D0AFE1DA4D2B
:1017000002222B68D949586A1E69F8615A621C6125
:10171000201C3F23221C0B7105F00CFD29E0012445
:10172000012C02D0022C0AD011E0002000F0A2F916
:1017300003F0EEFCC0B205F04BFDFFF783FF381C51
:10174000391C27302631002200F066FE041C05F00B
:10175000E5FB002800D082E105F0C2FB2725EB5D08
:101760008342DDD07BE105F0BBFB2721CB5D8342CB
:101770000CD1FFF767FF27212622C85DD15D01222A
:1017800000F024FF05F0CAFB0128ECD02B68FC69AF
:101790001E615C6263E105F0A3FB2722D35D8342F7
:1017A000F9D007F0D9FEFEF7EFFF05F081FA56E118
:1017B000FFF774FB05F05AFB002003F0C7FE03F0AF
:1017C0008FFEFEF76BFEFFF73DFF05F0E5FB05F032
:1017D000EDFB04280CD004D800280ED001F0DAF874
:1017E0000BE0052807D0062807D103F085FA04E0AE
:1017F00004F084FF01E003F06DFA05F071FB27248B
:10180000E35D8342E3D0FFF758FB28E105F068FB76
:101810002725EB5D8342F9D021E105F0BDFB01F006
:10182000B7F805F05DFB2721CB5D8342F9D016E1C7
:1018300005F0B2FB03F074FF05F052FB2722D35DE5
:101840008342F9D00BE105F0A7FB022000F012F96A
:1018500005F046FB2724E35D8342F9D0FFE005F065
:101860009BFB012000F006F905F03AFB2725EB5D14
:101870008342F9D0F3E0002003F018FE03F074FE79
:1018800005F02EFB2721CB5D8342F4D0E7E005F085
:1018900083FB002003F026F9002003F007FE03F08D
:1018A00063FE05F01DFB2722D35D8342F4D00120A7
:1018B00003F018F9D3E06C4600207C6107F0D4FEF9
:1018C00007F09EFE002003F041FE674D2B685E6826
:1018D00018681B694643F3180733DB08DB00E11A7D
:1018E0008D4602ACA6193C6003F02EF803F044F8D4
:1018F00003F036F83868311CBE6103F09BFF2B689B
:101900006D465A681B69D3189B000A33DB08DB005D
:10191000ED1AAD4602ACFC6105F03EFB524D2820AD
:101920002B68292419681A79C1552A20E255C25515
:101930001A1C283212785B692B21CA552C22D355E8
:101940002D240123E3553C680022391C131C04207C
:101950002831009405F0B4FB3868B96904F03EFE04
:10196000002003F0A3FD2B6841485D680668BD6058
:101970000022BD68AA4206DAB56991006D58FC697B
:1019800001326550F5E7FC69AA001969A4180668D8
:101990007960A44600227C68A24206DA356A90008B
:1019A0002D5861460D500132F5E7BA6831211868AB
:1019B000CA559A6830253224191C5B69E855E255EE
:1019C000342028310978C355294B01321B6833254F
:1019D0005B699200E9559A1804253521CD5500928E
:1019E000391C0022131C0220303105F069FB012351
:1019F0003822D3551C4B39241B683A201A793B21D5
:101A0000E255C2551A1C283212785B69CA55FC6926
:101A10003C22D355391C00223D23DD551020131CD8
:101A20003831009405F04CFB05F05AFA2725EB5DA0
:101A3000834200D172E77C69A54610E005F0ACFA5C
:101A4000FEF7E2FD05F04CFA2725EB5D8342F7D067
:101A500005E005F045FA2721CB5D8342F9D0272226
:101A6000D35D2624E3550CE600030020C7030020C5
:101A700000000020F0B5DA4C9DB0236800AF9B68F1
:101A800038637B625B000133BB6503F035FB236881
:101A9000FF229B687866D31A984200DD7B66786ED9
:101AA0007C6A041B3C626C4603F02CFB7C65BC6DBD
:101AB000684665002B1C0833DB08CA4CDB00C01AE3
:101AC000012363707C235B423A1C8546E370211C32
:101AD000B1230020643223716E4605F02BFB0023F6
:101AE000211CBC6DA34205DA3C6A5A001819B05299
:101AF0000133F6E70223CB70321CE4B263230020EB
:101B00004C700B713C6405F015FB2B1C7C6D08338D
:101B1000A546DB08DB006846C01A8546C01A6C463D
:101B200085467C65F86303F04DFEB861012003F043
:101B300091F900212A1CF86B07F002FE786D002154
:101B40002A1C07F0FDFDBC6D6846A400231C0A3367
:101B5000DB08DB00C01A8546C01AFC6178636C465E
:101B60008546C01A8546BC636C467C61BC69A4008E
:101B7000BC600024BC640021FA69B86B07F0E0FD8A
:101B8000786BFF21FA6907F0DBFD0024944BFC65BC
:101B90001B68FC6D5B689C4251DA3C6A0026E4B22B
:101BA000201C7C6403F0B9FA03F086FA03F048F9CC
:101BB0007C697D6B3C61BC6BB86D0136F217C30F5D
:101BC00086425341DBB2FB62002B06D1796C881947
:101BD000C0B203F0A2FA03F06FFA6B46FB60BB6879
:101BE0006A460A33DB08DB00D01A85466A46FA6487
:101BF00003F0EEFD0020031CBA69934205DAF96C8C
:101C00009A008A5801338018F6E72368984200D971
:101C100020602968884200D2286003F005F93A69FB
:101C2000043501C23A61FB68F86A9D460434002815
:101C300002D103F005F9BFE7FC6D0134A6E70024EB
:101C4000694DFC65BB6D9C4217DAB96B7A6BA300DA
:101C5000C858D358C01A854204DD3B6A051CE318F6
:101C6000BB623C65F96D814200DAF86503F0DCF88F
:101C70007A6D6300D0520134E4E7F86D03F0D4F8D4
:101C8000574B1B685B88984206DA3C6B012C03D0EB
:101C90007C6EBC627C6A3C65544D00262C68322206
:101CA000231DDE670433DA67803364221A60396DDE
:101CB00001220220DA607A6B81408A5898605E6067
:101CC000101C7A60796403F0AFF898347B6CB96BC0
:101CD000206058582C6803F0A7F82B68A0342060C7
:101CE0001A1C01213C6BAA324942AE3311801E807E
:101CF000012C22D1FA6B331CBC6DA34209DA7C6D36
:101D00005900615A1088884200D211800133023292
:101D1000F2E73C6D6300FC6B1A5BBC6C131CA242C7
:101D200000D2231C2F499BB23C6CBB6400200223D1
:101D30004C70CB700871FA6B19E0386B294C022893
:101D400008D1396C04236170E3702671301C211CAA
:101D50007A6926E0F86D03F067F83A6C80B2627039
:101D600002237A6DB864E3702671301C211C05F0E3
:101D7000E1F9386D6824E053BC6A6A21CC537C6D6C
:101D800043001B5BBC6C6E216C20CC531549C353C4
:101D900004234B700223CB703A1CB2230B7100203A
:101DA000683205F0C7F93C6D63007C6D1B5B0F4C1E
:101DB0002268111CE83109680988994223D207F08A
:101DC00059FC051C07F0BCFB0378061C002B0FD048
:101DD000012005F0F1F923680236E8331E6023E0A4
:101DE0007C0C00200C010020FFFFFF7F0000002082
:101DF000002D19D1174B1B68DB7C002B14D101205F
:101E000005F0CEF910E0E7321278002A0CD0124D1E
:101E1000286842889A4207D9002005F0CDF9236846
:101E20002A68E83302321A603C6B002C06D1BC6A87
:101E3000E0B203F072F9BD461DB0F0BD05F050F8F8
:101E4000072800D197E605F04BF8062800D192E666
:101E5000EDE7C046780C00207C0C0020F0B585B082
:101E600000920391029007F005FC061C05F074F83F
:101E7000071C05F079F8734D01902B681A1CE432A9
:101E80001278BA4220D0002F08D06F4900203B239F
:101E9000021C0B71022605F04DF910E001993C1C63
:101EA00000290DD168493C23381C3A1C0B7105F000
:101EB00041F92B68E6331E78731E9E41F6B2012469
:101EC0002B68E4331F701DE01A1CE532127801996B
:101ED0008A4216D0002906D1E6331E78731E9E4131
:101EE000F6B23A2301E03923022657490020021CAA
:101EF0000B7105F01FF92B68019AE5331A70012464
:101F000000E0002404F0FCFF071C05F01DF8009B16
:101F1000032B02D0002F03D107E00124002F36D07D
:101F2000002004F0F5FF012431E02B68E4331F8822
:101F3000002F2CD10099012902D0022904D00EE0F3
:101F4000009805F02DF90AE0381C05F029F92B68F6
:101F5000E7331B78002B02D0381C05F02DF905F073
:101F600019F92B68071CE6331B7883420FD0002831
:101F700002D01123012601E01223061C3249002061
:101F8000021C0B7105F0D6F82B68E6331F7007F0C2
:101F900071FBB04239D007F06DFB07F0BDFA071CAA
:101FA000301C07F0B9FA009007F064FB301C07F012
:101FB0005BFB07F025FB254B1B681B7D002B10D01E
:101FC000012C0ED0009B3A1C5B325B3303990298C4
:101FD00005F0FCFA002003F069FA0024FEF7ECFBA0
:101FE00006E02B680020CC33187003F0AFFA012410
:101FF000002005F0E1F82B6800211A1CE73211706F
:10200000134AE833126802321A6007F033FB07F014
:1020100097FA0378002B08D005F0C8F82B68E7334F
:102020001A78824201D01870012404F0A5FF051C23
:1020300005F0AEFC0379AB4200D00571201C05B061
:10204000F0BDC04600000020C7030020780C00202F
:102050007C0C0020F7B5434C151C236801911A1C19
:10206000B1321278061C002A23D01A1CE6321278EC
:10207000002A1ED11A1CCC321178002919D1B03394
:102080001B78002B15D10123137002F069FC071C8B
:1020900002F05AFC3A1C031C5B324A33301C019993
:1020A00005F094FA03F0CEF9022003F0D7F9FEF719
:1020B00083FB23681A1CCC321278002A4FD01A1CDA
:1020C000294F0020B03210703A680190526A011C0A
:1020D000013A0ED30E265643B446AC446646B68843
:1020E000002EF5D036B20131B042F1DA301C019247
:1020F000EEE71A1CE6321278002A13D1012911DD0D
:1021000005F046FC0123983003603B685B6A013BA5
:102110000AD3019EB342FAD00E225A430021AA18D4
:102120009180F4E7002904D023680022D4331A6098
:1021300008E01A1CD432D03311681B68994201DCC4
:10214000013111602368191C1A1CD431D03209687E
:102150001268914205DDB03301221A7001E0D433D8
:102160001A60F7BD0000002000030020F0B5A24C6B
:1021700091B002AFFA612268FB60136892689D1CFF
:10218000520055437960694639605208291C013371
:1021900053430831C908994EB860C9006846401ACF
:1021A00085460133306802A95B00CB18B9613C2237
:1021B00000212C307B6107F0C3FA2A1C0021B8698A
:1021C00007F0BEFA8E490020A623021C0B7104F012
:1021D000B1FFFEF79DFE3168081CC830CA31FEF71A
:1021E0000FFB2368874D5B6804226B705B232B71A8
:1021F0003368EA70291C9A69022004F09BFF236867
:10220000291C1B6902206B700423EB706C232B715B
:10221000336800251A6A04F08DFF33687A491A1C66
:10222000C8321288CA33FA621B883A1C3B630C20FE
:1022300001232C320B717D6304F07CFF2368242082
:1022400019682522C15558682621D0559A6827203B
:10225000CA55191C283109785B69C1552821CB550D
:1022600004202923D855336801325B6992009A18FB
:10227000391C0092022024312A1C2B1C04F020FF60
:10228000B8687968BA697B69FEF75CFCB861A842F6
:1022900000D08DE026686A46336B3A611A01131C40
:1022A00008336946C81A854602ADB969281C07F08B
:1022B00047FA326B281CF969FEF782FD23686946EC
:1022C000DA6A0E235A43131C0833DB08DB00C91AF1
:1022D0008D4602ACB969201C07F032FAFB68281C55
:1022E000211CFA69FEF7A8FD386DFEF777FE474B13
:1022F0001B681B7D002B04D1B8687968221CFFF78E
:10230000A9FE201CF96900F0AFFF201CF96900F05C
:102310001DFE06F017FE83000733DB08DB006A466C
:10232000D21A954602ABFB60334B061C1D680E2289
:10233000E86A7E61031C013B5343E418F8610434EE
:10234000F8690138F8610FD30021635E002B09DDC5
:102350007A69FB68013A90007A611818211D0422FD
:1023600007F0ACF90E3CEBE72A682C21CA556868E7
:102370002D23D855AB682E21CB5528352A782F2010
:10238000C25530210022CA551C49013309687E22FA
:10239000896A5B00CB1852423120C255391C009328
:1023A0002C31F2B20320FB6804F08AFE39698D46B5
:1023B0003A68954602F02AFF03F044F802F012FD55
:1023C000012003F073F802F04DFE0C4BB4221B68A1
:1023D000B8689A567968FFF741FD002800D1B869BE
:1023E0000B4B1A680B4B9A4202D003F099F9FEE7A7
:1023F000BD460FB0F0BDC046000300200000002025
:10240000C70300200C01002013010020780C0020DD
:10241000B00C0020CDCDCDCDF0B54D4C8BB02368A8
:1024200002AF1D68B96059687A604D430A22DA62CA
:1024300010221A631B696A46EB189B000A33DB08FB
:10244000DB00D21A954602AB3861BB6105F0A6FAF3
:1024500023686946DC6AAD00E200131C0833C91A20
:102460008D4602ABA400FB61231C0833DB08DB00B4
:10247000C91A8D4602A9F960F869002107F060F9D0
:10248000221C0021F86807F05BF9324E0024336803
:102490006946F0331C70304B1B682D331A7852009C
:1024A000131C0833DB08DB00C91A8D4602AB181C6D
:1024B000211C7B6107F044F904F050FFB969BA6947
:1024C0004D192B1C4178201CFEF754FABB68396962
:1024D0001A780B789A4205D004F05EFD3A69B96823
:1024E00013780B70336800229A6004F06BFE041CB2
:1024F00002F00EFEA04204D0201C02F00EFE0224C8
:102500001EE07A69291C0092FA69FB68B869FFF736
:102510002DFE104B114A1B68041C9968914202D091
:102520009A6801329A6000280AD104F0F7FC7B68AF
:10253000984205D104F0D4FC39690B788342D4D099
:10254000F869FEF7D0FC201CBD4609B0F0BDC046BE
:102550000003002000000020780C0020FFFFFF7F18
:10256000184BF0B51B6885B01E689B68B41C5B00F7
:102570005C4300AF221C5B08FB600832124BD208A0
:10258000B86079601868D2006946891A8D463C2285
:1025900000212C3007F0D4F8221C6846002107F0F7
:1025A000CFF8FA68731C534301336D465B006A46EB
:1025B000EB18B8687968FEF7C5FABD46C0B205B039
:1025C000F0BDC0460003002000000020F0B5B74E6B
:1025D000E9B0336802AF1D68F961596805244D43BD
:1025E0007A600222DA621C631B69B860EB189340C0
:1025F0000A33DB08DB006A46D21A954602ABBB61A0
:1026000002F0C0F905F0CAF9381C00211022483048
:1026100007F096F80023BB63FB6333686946DA6909
:102620009B69AD0053439B000A33DB08DB00C91AEA
:102630008D463B1C02AA58337A613B6404F08EFE3F
:10264000061C03F03FFBBB69201C5D193D611A1C91
:1026500071782B1CFEF78EF903F042FE944C7869DA
:1026600023685969FEF7D2F9F969BA68914201D035
:1026700004F092FC8F490020A223021C0B7104F08D
:1026800059FD236800249C60FC617C6204F09AFD83
:10269000386202F03DFD3B6A984204D0181C02F0FB
:1026A0003CFD022664E1002C72D1804B6A461B6817
:1026B000FA60DA6951009A6901324A43131C0833FF
:1026C000DB08DB006946C91A8D4602AE301C211CAE
:1026D00007F036F87A6A764D082A08D103F000FE32
:1026E0002B6878695969FEF791F97C624CE0042007
:1026F00002F0DCFE2B68301C59697A6904F0FEFF99
:10270000051E012D0FD103F0DDFA052002F0CEFEEB
:102710006849A323201C221C0B7104F00BFD00232D
:102720002C1C7B6230E0644D311C2B68786933339C
:102730001A7805F0A7F82B68F96933331B785B002A
:1027400099420ADD03F0BEFA05200121BA693B690E
:10275000FEF710F903F0C4FDFC61FA692B68013241
:10276000FA613233187802F0D8FC02F0EDFC2B68E5
:102770003333187802F0EAFA002002F009FB386AD5
:1027800002F0CBFC02F004FDFB6800269D46D9E078
:10279000494B01241B6834331878454B1B6818607B
:1027A00002F0D4FA052002F059FEB8693969FFF742
:1027B000D7FE061E00D0C5E03C4D6A462C68FA6084
:1027C000236B69461A01131C0833C91A8D4602ABE4
:1027D000181C311C3B6206F0B3FF391C226B386AAF
:1027E0004831FEF7EDFA2B686946DA6A0E235A4340
:1027F000131C0833DB08DB00C91A8D4602AD311CFF
:10280000281C06F09DFF3A1C3B1C48323833386ABE
:10281000291CFEF711FBA91C281C06F0E9FA281C4C
:10282000291C0E30103106F0E3FA391C281C403107
:102830007A6A06F0AFFB7862032803D007282BD111
:10284000182405E0381C403006F0FCFD041E26D09C
:1028500004F06CFB184B1B689B6B18400123A340D2
:10286000034219D02C2302212D22D819D955D45531
:1028700004F0FEFB02F0E6FD012002F05BFA0D49D8
:102880000020A223021C0B7104F054FC03F028FD6D
:10289000082300247B6253E0796A08290ED002F0F5
:1028A000D1FD012402F0B2FC4AE0C0460003002042
:1028B00000000020C7030020780C002004F064FB17
:1028C00000282ED00224381C221C2D492C3006F062
:1028D000F5FE381C211C2C3004F0CAFB052004F046
:1028E000E9FB4422D35D3021CB553223DC55312224
:1028F00000233321D455CB5534223521D355CA5D1D
:102900007F218A4314438022524214433522D455F6
:102910003A1C5832391C0092052030311A1C04F040
:10292000CFFB02F08FFD012002F004FA15490020D0
:10293000A223021C0B7104F0FDFB03F0D1FC002468
:10294000F9688D46104B114A1B689968914202D074
:102950009A6801329A60002E0AD104F0DFFA7A6890
:10296000904205D104F0BCFABB68984200D18DE6D4
:1029700002F068FD03F0A6F9301CBD4667B0F0BD5B
:10298000DC970000C703002000000020FFFFFF7F4E
:1029900070470000F0B5D74D9BB02B6800AF5C6866
:1029A000061C3C64640018687C653C6C604302193A
:1029B00051000831C908C900F8636846401A8546C5
:1029C000F8623C6C90000A30A400C0087C63C00030
:1029D0006C460732241AD208601AD200A5468546F2
:1029E000801A3C65DA686C4600218546BC63386213
:1029F00006F0A6FE2B68F86B5A690021684406F0C1
:102A00009FFE2B680021DA68386D920006F098FE70
:102A10002B68F86B5A69396D8400920008190021FF
:102A200006F08EFE2B68B449DA68B86B520006F0E7
:102A300087FEFA6BB96B50004308FB612B680818DE
:102A40005A69AD49520006F07BFEFDF70FFD022EDC
:102A500005D0032E05D02F30012E05D102E03030F5
:102A600000E03130007878647D6BAD08BD617D6D2C
:102A70006D08BD627D6C013D7D633D6D2C197C62EE
:102A8000FC69FD6A6300EB187B617D6B994C013535
:102A900000D1C1E0002002F009FD984B25681B68B9
:102AA0006C683B63013C64D3A0002B68B864591E7A
:102AB0007965F7D3A9683A6B4B43E3180133526940
:102AC0009B009858022E0CD0032E24D0012E4ED1FC
:102AD0003B6BB96C9B69FB605B58C01AC343DB1747
:102AE00018407A6DBB69396D5343E3189B00595800
:102AF0003A6D401898507B6B002B38D1796DBB6ACA
:102B00004B43E3185B00796CFB64FDF7A3FAFA6CA6
:102B1000FB6AD0522BE0796DBA694A43A318990039
:102B20003B6DC958031E8B4200D20B1C396DA21895
:102B300092005350796DBA6A4A43A1189446BA6B11
:102B40004900895A884200DD081C61466218B96B49
:102B50005200505280B21B1A7F22FD2B01D85B0815
:102B6000DAB23B6A786D19193B6C4343CA547B6DEA
:102B70009DE76D69614B7D651D687B6DFA69013B61
:102B80009C00B86B9B185B00C3183B637A6D013ADD
:102B90007A653DD3E9690859022E09D0032E17D072
:102BA000012E30D12A6A1359C01AC343DB171840CB
:102BB0007B6A796A1B597A6BC0180851002A22D1A6
:102BC000796CFDF747FA796D7A694B00D0521AE0BB
:102BD0007B6A1A59031E934200D2131C796A0B5167
:102BE000396B0A88904200DD101C3A6B108080B26D
:102BF0001B1A7F22FD2B01D85B08DAB2386AF96B09
:102C00004318786D1A54396B043C02393963BDE7B7
:102C10007C6B013C7C6338E7FD6A7D64022E06D044
:102C2000032E61D0012E6DD100F0F4F86AE001F0BE
:102C30008BFE381C32491022583006F03FFD02F05E
:102C400057FE21682D4B0E683864BD6A1868331C26
:102C5000013B5D433E6584467D653E6D013E3E65BC
:102C600022D34B687E6DFD6AF01840005E00281884
:102C7000FE630022023A013B11D33D6CFE6B6D00F6
:102C8000FD646546AD69B618BE6476007659FD6C84
:102C90005835ED5BAE1B855A75198552EAE77E6D96
:102CA000BD6A761B7E65D8E74B69FE69134AF11849
:102CB000FE6A490058001568711878650022023ACA
:102CC000013B0ED37E6DB0182E6A400080598E5A9B
:102CD000361AB4463E6C70005830C05B604488526F
:102CE000EDE700F098F80DE03D6A7D6400F094F89F
:102CF000012308E000030020FFFF00000000002087
:102D0000DE97000002232268582610685924F055E7
:102D100011795A25E155E955111C283109785B26AE
:102D2000F15552695C205D21C255CA5D7F218A43FD
:102D3000134380225242381C134358305D22796C71
:102D4000D35504F03BF9BD461BB0F0BD08B504F007
:102D500023F808BD174B10B51A68D16A002903DDA6
:102D6000506BC1420AD520E0002907D1124B1B68E5
:102D70001424185F546B0123844217DB0F4B18682F
:102D8000142802DC5B68142B06DD536B323303DA44
:102D9000546C01230A2C09DC906B0023182805DCF5
:102DA00033399E2088425B4100E001237432137066
:102DB00010BDC046000000207C0C0020380400201C
:102DC00010B504F0C9FD124B1B68D96A1A1CF03209
:102DD000002915DD041CE8342488A14210DA64249B
:102DE000E630614300885C6B6043C14208D5191C22
:102DF000E6310978002901D1012100E0002111709C
:102E00001278002A02D0743300221A7010BDC04616
:102E100000000020704770477047000008B502F0BE
:102E20005FFB01F099FE01F033FE01F0E7FD0F4B6F
:102E30001B68DA7A0E4B1B689433002A01D00222F9
:102E400000E003220B491A6000230B700A49A022FC
:102E50000B700A49D2050B709363D36B3F218B43F0
:102E6000D36362B603F068F908BDC046880C002041
:102E70000401002029000050280000502A000050C2
:102E800038B5041CFDF704FB051C04F065FD291C86
:102E9000F0310B78002B24D0124B00221B681B6BE7
:102EA000013B07D3180120180825405F0028F7D1FF
:102EB0000122F5E70C4B1B68D86A002811D15D6B25
:102EC000002D0ED1F433002A0AD01A68FE2A01DC44
:102ED00001321A601B68052B03DD00230B7000E034
:102EE0001A6038BD000300200000002070B5051CEA
:102EF0000C1C161C04F084F8002802D001280AD00B
:102F000023E00E204643AD19EA88FF23FE2A00D8AD
:102F1000D3B2637119E00E2070432818C288FF23D2
:102F2000FE2A00D8D3B263710B220A238256C356FD
:102F30000921D31A0822415682568A1A934202DD89
:102F4000A371E27101E0A271E37170BDF0B5C14BF4
:102F50008DB01B6804909E689F690696DE68079195
:102F600003961E6905965E69029604F04FF8BA4B07
:102F700001261B68E4331B780196002B58D00026ED
:102F8000079D049C0196B54B1B685B6A9E424FDA15
:102F90002B8809A803806B88438005F057FF042025
:102FA000235E002B40DD238869460B84638808A8D4
:102FB0004B8405F04BFF68462023C35E0699994277
:102FC0000BDA039A9A4208DD68462222825E05994E
:102FD000914202DA0298904221DC04216A5E002AC2
:102FE0001ADD9F4A126892192832127852B2012AC9
:102FF00012DD0698C21B9A420EDA0399CA199A4248
:103000000ADD6A462223D35E0598C21B9A4203DA80
:103010000299CA199A4205DC0023A38004E0012228
:10302000019201E001230193013608350E34AAE72D
:103030000126049C079D0296884B029F1B68013F56
:10304000586A874200DBB6E02B8809AE33806B8874
:10305000301C738005F0FAFE0420235E002B00DC98
:1030600080E0238869460B84638808A84B8405F0B8
:10307000EDFE6B46598C1A8C794B03911B68308896
:10308000DB1960331979774B844676881B680029F1
:1030900001D14C3300E04D330420295E1B78002918
:1030A00011DD039836B201B2891BCE178919714020
:1030B000994208DA664630B211B2091AC8170918DF
:1030C000414099426DDB019E002E6AD00AAE3378F2
:1030D000802149421943DF200140207B0123184011
:1030E00040231943102399438C4602990F2319401A
:1030F000059100016146084305999843014310B2C8
:1031000000121840317071780590039899438C46ED
:1031100001B2091209010598B270039A069161463D
:103120000843F2700699A28803401943131C12B297
:103130007170FF2A00DDFF233A1C0498311C3371A3
:10314000FFF7D4FE301C03F06BFF0423EA5E444B10
:103150001B68DF196037002A01DD012300E000232E
:103160003B711AE004202B5E002B1ADD0AA8002315
:10317000029A43600F231A4040210A43027001273C
:10318000F75772883188F6783B4076B236011E4395
:1031900046708170C27003F043FF23882B806388E0
:1031A0006B80A388029EAB80E3880136EB80029699
:1031B0000E34083540E75B690F255C1E1D40284E24
:1031C000621C2FD031686700CB191A1C783200209E
:1031D000125E6E33002A0FDC1B881AB2002A16DD3D
:1031E00000210AA80A914160802129430170FF2A29
:1031F00000DDFF23037108E000215B5E002B06DC8D
:103200000AA800230A934360057003F009FF33689E
:10321000013CDF193B1C6E373A8878331A80013D38
:103220000F23CBE7336801201A1C9832116808324B
:10323000002902D11068441EA0411C1C8E3420704D
:103240001268181C9C30A43301601A6003F0FCFE65
:103250000DB0F0BDA40C00200000002000030020F1
:1032600008030020A00C002070B5124B051C1B6841
:103270000C1CEA331B78002B1BD00F4A1368161C5A
:10328000191C9C310968002905DDA4331B68002B3B
:1032900001D105F017FB33681A1CA4321268002A0A
:1032A00007DD9C331B68002B03D1281C211C05F073
:1032B000DFFA70BDA40C002008030020F0B591B027
:1032C0000F910B9004F056F8A84B01211B680025C4
:1032D0001A1C5A32127891401A1C5B3212785C33F5
:1032E000891A1A788B1ADBB20D93FDF7D1F804F026
:1032F00049FB9F4B0C901B680E200993A8330E933B
:103300009C4B0B9C1B6808955A6A0A955043111CEC
:1033100023180E3B01390BD3DC88089EA64200DA45
:1033200008940427DC5F0A9DA542F2DA0A94F0E7CC
:103330000B9E013A3018071C0592083F059E013686
:1033400000D127E13B1F00201A5E0C9B3E33FF2A71
:1033500006DCBA1E0021525E002A01DD012200E0D7
:103360000222BC1E1A700025635F0394002B00D15B
:10337000F7E07E4D38882B681A1C4E321969167892
:1033800024333A3A03F0BFFF041CFDF781F8F03014
:103390000378002B05D02B6835331B789C4200DA6C
:1033A0001C1C2D682B1C4F331B78002B02D164266C
:1033B000069644E0099906965D31FF310A78002AA5
:1033C0001CD1039E64230020305E069E4343664367
:1033D0009C46099B5533FF33B4450DDDA0420BDC01
:1033E000654E1868366801301860DA363678B042B3
:1033F00004D10120087000E000221A6009995D31B3
:10340000FF310B78002B14D0039E099B0022B25E83
:103410005533FF33A2420ADD1A68281C01321A60B4
:103420003E300078824204D100220A7000E000227F
:103430001A60099B5D33FF331B78002BB7D04C4BD0
:10344000059E1B6804939B1928331B785AB2002BE6
:1034500005D02B1C3E331B789A420BDD66E0474BB0
:1034600047491B68186CDE6C086046490E60996B12
:10347000454B1960454B002119702B1C3E331B78BE
:103480009A4236D13F4B1A683D4B01321B689A4233
:103490002FDB3A4B1B681A1C54321278043A032A69
:1034A00027D81A1C55321278083A032A21D89E6B65
:1034B000DB6C301C191C0793FCF71AFE012809DC91
:1034C000079B0B3B092B05D8312E03DC2F4B012228
:1034D0001A700EE002280CDC0799142901DD312E48
:1034E000F4DD022805DC079A1B2A02DD323E322E6B
:1034F000ECD9039E64220023F35E069E5A43744374
:10350000A2421FDB2A1C44321278089C398862438D
:103510009211914216DBAA6C0A9D6A439211934262
:1035200010DB1A4B1B78002B1BD00BE0039E3435AD
:103530000023F35E2E78164A7443069D53436C4372
:10354000A3420EDA059A049C0E32039E92000023D9
:10355000A2183B8033805360231C98331A68013AC9
:103560001A60059D0E3F013D0595E7E6A00C002081
:103570000803002000030020A40C0020000000200D
:103580004804002044040020400400204C04002093
:1035900010270000DA4B00221B680F9C98331A603A
:1035A000D84B0E9E1B680B9D5B6A5F1EFA00A2182B
:1035B00003920C227A430E247C4305973F33099FE4
:1035C0005B00FB18B218AA332C1904920893059ECD
:1035D000CB4F013600D1FDE10420235ECA4A002B07
:1035E00000D1B7E1059E3D681268A9190B1C28336C
:1035F00018783E320130C0B21870127840B2961D71
:10360000B04201DD04321A702823CB56012B04D1BD
:103610002388039F3B8063887B80059F2826EB19C6
:103620009E57012E00DC7DE1B01C0321FCF7B6FDA6
:103630000691022E39D1B34B039F69692D691E682B
:103640000022BA5E6D10039F551B30687668022316
:10365000FB5EEF17013EED1936027D40761B7F2E93
:1036600009DD4910591ACD1701384919000269407E
:10367000401A7F280EDC0026A05F0227E15F801A37
:10368000C91A04F0C9FD0B2804D9039D2B88238097
:103690006B8863800323013B10D32188049E5A006A
:1036A000B1526188B218D180F5E7039E069F049D50
:1036B00032887B00EB181A807288DA80904B059F65
:1036C0001B680020265EDB1928331B780221655E0B
:1036D0005BB20793032B00DC18E1069F04987B0084
:1036E000C718398806980A9104300321FCF756FD63
:1036F000049A4B00D3181888079ADB888446F98807
:103700000B93042A0AD1039B0020185E301AC617B7
:1037100080197040039E0223F35E09E0089B00209D
:10372000185E301AC61780197040089E1423F35E85
:10373000ED1AEA17AD18554023884019089D059EDB
:103740002B806388704AAB82099DAB192133FF330C
:103750001D78002D06D0156862352D88A84208DC3A
:10376000002505E0156864352D88A84201DB012598
:103770001D701B78002B28D112688021131C603229
:1037800012885E331B8800924A0003F0ABFD061CD2
:103790000020215E0022B85E0B1ADA179D185540F2
:1037A000AC460623FA5E0223E55EAD1AEA17AD18B1
:1037B00055406544321C2B1C05F0CCFB20800623B1
:1037C000F85E321C0227E15F75E00A9E6046B5B2E2
:1037D0002B1A1BB2DA0FD3180B9A89B25B100A931B
:1037E0008B1A1BB2DE0FF3180020265E5B100796C3
:1037F0000220265E0B930C960A9EAB19079D1BB206
:10380000EB1ADE170B9D9B19734049190C9E09B2E8
:10381000711AC817091841405B180025802B01DD7B
:103820001D1C803D069803210530FCF7B7FC364B84
:10383000049E1B68490071181A1C0F915B3200210D
:10384000785E0D9916780132127841430F980692EE
:103850000022825E079872438918069A42438818AC
:103860001A1C5A3212785D3310410E900620395ED0
:103870000D9F0F984F430621415EBC464E43069F65
:103880000C991B784F430B996644F61959430A9FCC
:1038900011417B43164176180E9913418022C818B6
:1038A000D20007992B1C05F055FB0222A15E802255
:1038B0002080D200301C2B1C05F04CFB039D608047
:1038C0000420285E104D0426A15F2B6804333E2798
:1038D000DA5F431ADE179B19734005F03BFB039F29
:1038E000A0802B68F888E18804333E255A5F431A8C
:1038F000DE179B19734005F02DFBE08012E0C046F7
:103900000803002000030020A00C0020039F0023D8
:10391000FB5EF61876102680039E0223F35EED18F8
:103920006D1065807B4B7C491A68059F0968D31927
:1039300028203E3118560978884203DC0122524281
:10394000A28003E098321168013111603033002207
:103950009A7031E01168059D3A6800265019021CE2
:103960000D1C28323E3596572D78AE421DDD039E44
:103970000425755F002D1FD0303085783F3101352B
:10398000EDB2857009786DB28D4214DC039D2B88F1
:1039900023806B886380AB88A380EB88E3803B68DF
:1039A00098331A6801321A6006E0099E059F137069
:1039B000F2192132FF321370059D039E013D049FD1
:1039C0000595089D083E0C3F023D03960E3C04976A
:1039D0000895FCE53B680022A0331A604F4B1B683A
:1039E0005C69013C601C00D192E003F0C5FA4A4ECC
:1039F000012808D033681A1C3C3212783D330392F8
:103A00001B78049303E00F2014210490039138687D
:103A1000650045192A1C6E3213880593002B0ED0C1
:103A200078214B5F9C46059B19B26346002B01DC55
:103A3000039B00E0049B994201DA00231380118864
:103A4000031900293ED01A1C803290787F2801D0BB
:103A50000130907080339B785BB2022B17DD2B1CFA
:103A600078330022985E336809B29C4604239C4454
:103A700062463E23D25E6E350392421AD317D218A5
:103A80005A4094466346039A05F064FA28803B68DE
:103A900002201A19111C803108563168403109780A
:103AA000884207DC211C343149005B18012149425E
:103AB000D98003E0A03319680131196080320023F6
:103AC000D3718EE736688033049602269E57B4463B
:103AD000049E40363678B44518DD78352D88002DA3
:103AE00000D17EE7DE79B4460126B4446646F6B2DC
:103AF000DE7176B2B446049E41363678B44505DCB4
:103B00001580A0300368013303606AE7997068E7A5
:103B100011B0F0BD08030020A00C0020000300201D
:103B200038B5051C0C1C03F0F9F9012803D0281C3A
:103B3000211CFFF7C3FB38BDF0B58FB0059007918E
:103B40000A920B930024404B1B681B6B9C4278DA53
:103B5000059F2301FB1808201B5E002B6FD0079FD9
:103B6000A300FB180327DF5708979B78013F5BB240
:103B700006930497089F049801370997B8425EDCC2
:103B8000069E013E069B01339E4255DC2E4B049956
:103B90001B6801319A680A9F5143481C80193D5C9B
:103BA000013D47D31B6B9D4244DAAC4242D0079F94
:103BB000A300DB5F254F40003F683F89BC46149F50
:103BC000C05B834236DC069F6046C919434301311E
:103BD000149F4900C95B9B118B422BDA099F7A43E2
:103BE000B2180132149F5200D25B934222DAA542EE
:103BF00002DB2B1C251C1C1C059821010DAF411854
:103C00000A31381C042205F059FD059A2901511882
:103C1000381C0A3103F074FF00970A9F231C019798
:103C20000B9F05980297149F079903972A1C03F08E
:103C300085FF2C1C0236A5E7049F023799E7013463
:103C400081E70FB0F0BDC04600030020A00C0020AB
:103C5000F0B585B00D1C161C0393041CFCF706FC84
:103C6000FCF710FC00F070FE474F48493B6802200B
:103C70001B69321C4B700423CB705A230B7103F069
:103C800059FA2B1C2A3300221A70414A80231268E9
:103C90001B0600923F4A6B6312683F4B02923F4AF9
:103CA000AB633B6810681B698446013B2ED3039AC3
:103CB0009F00D259F159686B01928A1A904200DA3A
:103CC0006A63A86B904200DDAA6300980278002A1C
:103CD00006D00298C218BA32FF32127851438911C5
:103CE0000A98C259120C521A06D40098417B8A4293
:103CF00002DB01216046017159006252291C2A3100
:103D00000F78BA4200DA3A1C0A70CEE70021625EF0
:103D1000234B1A600220225E5A6003F02DF901281D
:103D200002D12D23192201E0412323220420215E08
:103D300000290CDD914200DDA2802188A2888A1A28
:103D400091B2100401D4218001E0002222800621DA
:103D5000625E002A0CDD9A4200DDE3806288E3881F
:103D6000D31A9AB2180401D4628001E00023638060
:103D7000074B2A351B682A781B7A00209A4240415B
:103D8000C0B205B0F0BDC046000300200C01002009
:103D9000940C0020980C0020FFFFFF7F04030020FC
:103DA00038040020F0B595B013930C1C0C921290BF
:103DB000FCF75CFBFCF766FB964B1B68F0331B784B
:103DC000002B06D1944B1B681D7A0A950A27DE5FEB
:103DD00005E0924B1B689D780A950427DE5F904DA5
:103DE00090492B680C9F5A6818684A709A68042397
:103DF0008A70013292000870CB70BA1851230220E9
:103E00000B71099603F096F90023A21D8248D3771F
:103E10000232D3777F262968621D05688248D677EB
:103E2000E21DD67700684A680F908048013AD2B206
:103E300000680E920A6810907D4E8020013A0006BC
:103E400052B2AC460896079006930493002A00DA13
:103E5000A3E00E9F50007BB20B90002B00DA9AE09B
:103E60008E68551C75430135ED18A8000C9F01950F
:103E7000139D9E00C059AE59079F861BB74200DABA
:103E80000796089DB54200DD0896664637784E686D
:103E9000002F09D0351C55430F9FFF187F5D109DE3
:103EA0007843AD686843001356431A9F9E19B600C5
:103EB000F659129F360C301A019E7500E85366467B
:103EC000002854DB0F257557A84212DB2768451BD5
:103ED0007D1925606569102701356561F757F67B07
:103EE000656876B2B84201DC861B00E0BE1BAE19E5
:103EF0006660E568A84204DDDEB2D7B211960D9780
:103F0000E0606646357BA8421BDB251C08351F2672
:103F1000AE579E4200DAEB77E51D1F26AE579E4254
:103F200000DDEB77A51D1F26AE57964200DAEA7733
:103F3000651D1F26AE57964200DDEA77069F0137C2
:103F4000069785B21C9F5E000295BD5B029F7D199E
:103F50002F1C1C9DAF531B9D0B9EAF5B029EF51942
:103F60001B9F0B9EBD53049F3F18049711E0112522
:103F70007557A84206DCA768451B7D19A560A56991
:103F80000135A5612569A84200DA2061049E361A30
:103F90000496013B61E7013A58E7214B04981B68FE
:103FA0000125D968FCF7A4F822497C235B42221C36
:103FB000CB70E06176231C32281C0B714D7003F02E
:103FC000B9F8069FA21D27621F21631D51561F22AB
:103FD0009A56164B1B68914201DB1D7101E00022CD
:103FE0001A71079D089EE562119F231C0D9D2833C1
:103FF00026631F705D70E6680A9F0120BE4205DAE5
:104000002369099DD80FEA179D425041C0B215B0EF
:10401000F0BDC04600000020940C00209C0C002045
:1040200000030020C0030020980C0020040300209F
:10403000FFFFFF7F0C01002007B5104B2A301B68E3
:104040000278987C0968424392098A4200DA0A1C85
:10405000997B4A43921101921B7B9A4200DA0193A9
:10406000074901234B707C235B42CB7006201F2342
:1040700001AA0B7103F05EF801980EBD940C0020AC
:104080000C010020F0B58FB01C1C14AB1B780792FC
:104090000D9304910B90FCF7FBF9051C03F05EF9FE
:1040A000049F00237B72FB727F233B72BB72231C35
:1040B00028331B78061C1A1F042A2AD8221C2932EE
:1040C000127852B2032A26DCE16862681D290EDCF0
:1040D0002768B81A31280ADC6069142807DD2B1C10
:1040E000F93301221A701423337364230FE0132968
:1040F00011DC21688A1A042A0DDC62690A2A0ADDA9
:104100002B1CF93301221A701423337363231A1CF6
:1041100036E1002B10D0BB4A59B212685068013802
:10412000814209D0211C29310978002904D0126864
:1041300049B2013A914221D167681E2F1EDD2068E5
:1041400050281BDD6169142918DD2B1CFB331A78FC
:10415000002A0DD101221A70231C28331A782B1C37
:10416000FC331A70231C29331A782B1CFD331A7068
:104170002A1C0123F8321370937071E05BB2012B9B
:104180000FD0A04A11684A68023A934209D0221C13
:104190002932127852B2012A03D0096802398A42C0
:1041A00024D162681E2A21DD2768502F1EDD606938
:1041B00014281BDD2B1CFB331A78002A0DD1012299
:1041C0001A70231C28331A782B1CFC331A70231CFA
:1041D00029331A782B1CFD331A702A1C0123F8325C
:1041E00013709370142333735F2390E78549032B77
:1041F00004DD0A685268043A93423BDB221C2932F0
:10420000127852B2032A04DD0968096805398A4226
:104210002EDB616896292BDD2268FA2A28DD676982
:10422000142F25DD2B1CFB331A78002A0DD1012217
:104230001A70231C28331A782B1CFC331A70231C89
:1042400029331A782B1CFD331A702A1C0123F832EB
:1042500013709370231C29331B785BB2032B03DC90
:10426000142333735A2352E70F23337346234EE745
:10427000022B0FDD634A11684A68033A934209DA58
:10428000221C2932127852B2022A03DD096804394D
:104290008A420ADB6068DC2807DD2168A022520020
:1042A000914202DD6269142A46DC042B0FDD554A77
:1042B0001268516805398B4209DA231C29331B78AF
:1042C0005BB2042B03DD1268053A934227DB676873
:1042D00087235B009F4222DD4B4B206898421EDD06
:1042E00061691E291BDD2B1CFB331A78002A0DD1B6
:1042F00001221A70231C28331A782B1CFC331A70E5
:10430000231C29331A782B1CFD331A702A1C012315
:10431000F83213709370142333734123F7E6626805
:1043200096235B009A4223DD2768FA239B009F4275
:104330001EDD606932281BDD2B1CFB331A78002A36
:104340000DD101221A70231C28331A782B1CFC3340
:104350001A70231C29331A782B1CFD331A702A1C5F
:104360000123F83213709370142333733C23CEE689
:10437000264B08221B689A565B7A92B25BB29BB2BC
:10438000224F0321386841562020411A38684900DD
:10439000807840B2091A4910C9B2039111B21AB219
:1043A0003B68069108920421595E3868089B0622F2
:1043B000825E00936068069B02F094FF114B8002BE
:1043C0001B6819680A93FBF793FE2B1C0590F833C2
:1043D0001B78012B04D02B1CF9331B78012B1CD12B
:1043E000E3680C2B08DC07232A1C3373F832002304
:1043F00013705370FB350FE01D2B09DC0F23337353
:104400000BE0C0460003002026020000A80C00209C
:10441000312B02DCFA3500232B703B680A9D1A7899
:104420006968002A6BD0169E881CF2884000728052
:1044300032893280021FB21815883552901E0088CA
:10444000D0805878002803D0039D6FB27F003BE0F6
:10445000023A01393BD35688D5880320185675197E
:10446000039E4543178870B21689BE194643022041
:10447000AD1918569688059F704328188011784307
:1044800000141081E4E703255D575088D6886D003D
:10449000AC46051CB04200D2351CADB26046684344
:1044A000168815898446301CAE4200D2281C02258D
:1044B0005D57968880B27843754360444519059EE0
:1044C000AD1175432D141581023A0139DBD2089ED6
:1044D00006255A5F0420195E0096069B606802F06C
:1044E00001FF9F4B80021D686968FBF701FE9D4B31
:1044F00005901B6829681A78002A0DD165E04A1CCE
:10450000169F5200BA180139E1D31088059D023A6E
:1045100068430014D080F6E7159E881CF28840009E
:10452000728032893280021FB21815883552901E6F
:104530000088D0805878002803D0039D6FB27F0098
:104540003BE0023A01393BD35688D5880320185600
:104550007519039E4543178870B21689BE194643E4
:104560000220AD1918569688059F704328188011AF
:10457000784300141081E4E703255D575088D688FE
:104580006D00AC46051CB04200D2351CADB2604691
:104590006843168815898446301CAE4200D2281C18
:1045A00002255D57968880B278437543604445196B
:1045B000059EAD1175432D141581023A0139DBD2E8
:1045C0001A7B002A0ED1039222E04A1C159F52004A
:1045D000BA180139F4D31088059D023A68430014D3
:1045E000D080F6E70E26995F60680027039788421F
:1045F0000EDD10241A5F9B7C01255BB200933B1CEF
:1046000002F070FE10231B1A9B0009900C93039577
:10461000534B0027186805970668B44666464368FA
:10462000711E00D285E0159C4A00A2180892013B39
:1046300000D27CE0039D8468002D3CD06646664332
:104640000696F618079F01367600BD5B5F1C2AB2FE
:10465000D243D2172A408D1C654302967D19079ECE
:104660006D00AE5F12B20A96964200DA0A92069E7A
:10467000341B3C19079F6400E45F944200DA141C69
:104680000A9E079F3519029C3E190224375F141EAB
:10469000BC4200DA3C1C023E2D190027F45F161EB6
:1046A000A64200DA261CAD19099C0C9E6543724394
:1046B000AA18921106E067467C431C190134079D35
:1046C0006400625F169E5C0034192489089F121BE7
:1046D0003C89121B0D9CA24218DD049D0B242C5713
:1046E0009C4200DAEB72049E0A2434579C4200DD9F
:1046F000B372049F09243C578C4200DA7972049DFE
:1047000008242C578C4203DD297201E0002A04DDC5
:10471000059E964202DA059200E000228468674610
:104720007C431C1901340B9DA40062517FE78C4629
:1047300074E70D498268059F049C056827600B9EFD
:104740004B708A707C2301325B429200CB70B218AE
:10475000832305200D700B7102F0ECFC0FB0F0BD4F
:1047600000030020A80C0020C0030020F0B5A9B071
:104770000FAD059000216422281C04F0E1FF06A87B
:104780000021242204F0DCFF00246300E858019398
:1047900028236343304F02903A1C3232D2180492DD
:1047A000002605980499835F885FFA2158438900A1
:1047B000FBF79EFC029A02361018502E01D0029090
:1047C000EFE73B5F019AC0180234A850322CDCD1CD
:1047D0000023E958002901DA0022EA500433642B4F
:1047E000F7D10024670018206946C01940581921E4
:1047F00061431A4B01901A1C14328A180292002647
:1048000002987200835FA858FA2189005843FBF789
:104810006FFC019902360818322E01D00190EFE7A3
:104820000E4B18370233E35E0234C0186B46F85063
:10483000122CD7D1012252420023990006A84158D8
:104840008A4202DADAB203920A1C0133092BF4D14C
:10485000039829B0F0BDC046EE970000EE9F00001F
:10486000F0B585B00192021C5232041C0D1C861C4E
:104870000292B31E0422A85E03930022AB5E184F7F
:10488000C01A01997843FBF733FC039B0199188008
:104890000222AB5E0622A85E0435C01A7843FBF7FD
:1048A00027FC029B308004369E42E2D100230D4A51
:1048B000E15A56329A5A8A1AE2520233502BF6D1F2
:1048C0000025635FFA2080005843074B2633E95EDA
:1048D000FBF70EFC60530235502DF2D105B0F0BD50
:1048E000A08601006EA10000EEA1000030B50022FC
:1048F0000C7D131C8D5CA54201D00133DBB201326B
:10490000142AF7D1022B14D8012303700B7D062142
:10491000181C884301280CD1032B0CD003D8101C81
:10492000012B09D005E01620052B05D01720072BF9
:1049300002D0002000E0152030BD0000014B1860BF
:104940007047C046880C0020014B18687047C0466D
:10495000880C0020014B18607047C046840C002072
:10496000014B18687047C046840C0020014B18604A
:104970007047C046800C0020014B18687047C04645
:10498000800C0020014B18687047C04604010020CD
:1049900010B50D4B00201B78AA2B12D10B4B1C78A5
:1049A0000B4B64B218780B4B40B219780A4B2018A5
:1049B0001A780A4B49B21B7840188018C01A434233
:1049C0005841C0B210BDC046500002005100020064
:1049D0005200020053000200540002005500020081
:1049E0008023DB020022188059809A80C046024B47
:1049F000188880B27047C04606000400154BC022DC
:104A0000920098581449014099509958FF208143C9
:104A100040200143995098581049014080200004DB
:104A200001439950985880210002000A0906014369
:104A3000995002221A6001221A60082104221A6089
:104A40001960FC3300215960054B19690A431A614A
:104A50007047C04600E100E0FF00FFFFFFFF00FFDE
:104A600000ED00E013B5094A042413780021DBB2FD
:104A70001C4301910198F421FF31884205DC137039
:104A8000C046147001990131F3E713BD0D000050C9
:104A900013B500220192A022D205D06BC021C9001B
:104AA0000143D16301AB18780321884301210843F6
:104AB0000C24A043042420433024A043102420438A
:104AC0003F24204040242043187098780F24A043AE
:104AD000072420439870D8780143D970019B9361D3
:104AE00013BD00000122A023DB051040020603498C
:104AF00098690840104398617047C046FFFFFFFE69
:104B000082B00022019201301F2201AB1040C9B2D5
:104B10001870481C023110400A4092005870DA7038
:104B2000019AA023DB05DA61196A024A0A401A6277
:104B300002B07047FFCFFFFF0002064B000A0138AA
:104B4000002258609A6005221A60C0461A68D10394
:104B5000FCD5704710E000E0F0B5534F85B03B68DE
:104B60001A1C543215780232596D127857331E7858
:104B70000F231407994312092D0701922D0F0B1CC7
:104B800080222B4352001343484A0395484D13405B
:104B9000484A2B4048491340240F0B4001992204F6
:104BA00013430A0545493607360F0B400096134359
:104BB0003206434E029433401343424AA024E40594
:104BC0001340E360FFF74EFF3B68E26855331B7804
:104BD0001540DB069B0FDB021D43E560E268802386
:104BE0009B001343E360E26880239B011343E3606F
:104BF000029C039DFFF7CCFE002813D0324F882083
:104C000039781E34C9B2FBF773FA39784443C9B214
:104C10008820FBF76DFA0F3545431E3C00230F3DFE
:104C20009C4203DB231E0F2B00DD0F230F22954236
:104C300000DD151CA024E4051F491A40E368120496
:104C40000B401343E360EB43E268DB171D400F2387
:104C50009A431D401543E560E368F02293438022A8
:104C60001343E360E368154A18481340E360E368C0
:104C70003340E360FFF760FFE26880235B05134386
:104C8000E3600099E2680B0616401E43E660104898
:104C9000FFF752FF019B09491A05E3680B401343D4
:104CA000E36005B0F0BDC046840C0020FFF9FFFFB3
:104CB000FFE7FFFFFFDFFFFFFFFFF0FFFFFF0FFF3B
:104CC000FFFFFFF0FFFFFFEF54000200FF0F0000A7
:104CD000FF6F0000064A074B1268012094321268E9
:104CE00019789040021C0A43D2B21A707047C0462D
:104CF00004010020290000500549064B09681A7874
:104D0000943109680120884082431A707047C04678
:104D10000401002029000050044B1878044B1B6844
:104D200094331B6818410123184070472900005034
:104D300004010020044B82B0019001AA18809278EF
:104D40009A7002B07047C0462400005007B500F0CA
:104D5000D5FD064B019001AA188092789A70044BF9
:104D600000221A70034B0122DA7707BD240000509D
:104D70006C0C002008000050034B00221A70034BFB
:104D80000122DA777047C0466C0C00200800005002
:104D900072B6084B1B5C002B03D1C04662B630BF15
:104DA000F6E762B6A023DB059968034A0A409A60D9
:104DB0007047C0466C0C0020FFFFF9FF72B6074B2E
:104DC0001B5C002B02D1C04662B6F7E762B6A02397
:104DD000DB059968024A0A409A6070476C0C002013
:104DE000FFFFF9FFA023DB055A680121120E586866
:104DF0009143034A090602400A435A607047C0467D
:104E0000FFFFFFFE08B5074B1B681A1C5C321278C7
:104E10005D331B785200013250439940FBF768F92B
:104E200008BDC046840C002008B5044B1B685F33E6
:104E3000197849000131FFF7E5FF08BD840C002017
:104E400008B5A0230120DB055870FFF7A1FFFFF78D
:104E5000C9FF08BDF7B5A026041CF605042804D137
:104E6000524B1B685F6F9B6F21E0514B1B689F6C1F
:104E7000DB6C7361FBF70CFBE7300378002B17D07A
:104E800004F0F8FB04F05CFB01797F2211408904F7
:104E9000019171690B1C47490B40019919437161DC
:104EA0004179444B0A40716992040B40134373618A
:104EB000A023DB051F611E691F231E40FFF768FD4D
:104EC00000280AD03C4B882019780436C9B2FBF779
:104ED0000FF946430023043E03D4331E1F2B00DD8D
:104EE0001F23A022D20510691F210B4088430343D2
:104EF0001361022C16D007DC002C13D0012C2DD10D
:104F00002B4B1D685E3529E0042C07D023DB052CD4
:104F100024D1264B00241D687F351FE0234B1D68DC
:104F20007C351BE0FBF7B4FA031CCC331B78002B59
:104F300003D01E4B1D684A3510E0E7300378002B84
:104F400005D004F097FB04F0FBFA851D06E0184B32
:104F50001D685B3502E0164B1D686135A023DB053B
:104F6000596928783F22104091430143596168787C
:104F70001F215D6908401149C00229400143596160
:104F80000F49640009680C19211C533108785968CD
:104F900010409143014359605434217858680A40C5
:104FA0001102084A02400A435A60F7BD880C0020EB
:104FB000840C0020FFFF03FE54000200FF07FFFFE8
:104FC00004010020FFC0FFFF214BF7B51A68214BF9
:104FD0001B685E331B785B069B0E0193517E00239A
:104FE0008D005519581E5B18002B25D053181B181F
:104FF0009B7E8024D3185E78A023DB055F68E403E2
:105000003C435C60019CB606240400945F68B60EC5
:10501000BC46114F64462740009C27435F60C04652
:1050200024367600F65A84002C1966675E680B4CAD
:1050300034405C60031CD5E7537E094974324B70E1
:105040000423CB700F20B0230B7102F073F8F7BD6F
:1050500004010020840C0020FFFFC0FFFFFFBFFF02
:105060000C010020F7B5FFF7AFFF114B00241D68BE
:105070006E7E731C9B005B420093B300EB180193A0
:10508000009B043C9C4207D0019B01211F19786FB3
:10509000FFF7B8FE7867F3E706492A1C0423CB70B4
:1050A0007432B0230F204E700B7102F043F8F7BD3D
:1050B000040100200C010020044B00225A70A023A0
:1050C000DB055A7001221A707047C0466C0C002034
:1050D000A023DB059968064A0A40802189020A4319
:1050E0009A60044A0021917001229A707047C0466C
:1050F000FFFFF9FF6C0C0020014B1B68D86E704756
:1051000004010020014B1B68D86670470401002091
:10511000A023DB059868C0B2704730B5A023DB053B
:105120009B68DBB283420ED001DA013300E0013B21
:10513000A022D2059568FF211C1C8D430C40291C20
:1051400021439160EEE730BDA023DB059968802202
:1051500052020A439A609968094A0A409A609A681A
:10516000120112099A60D968064A0A40DA60D968C1
:10517000054A0A40DA60D968044A0A40DA60704792
:10518000FFFFFFF0FFFEFFFFFFDFFFFFFFFFFFEF6F
:105190001B4B10B51A680121131C52331878A02339
:1051A000DB059C68084017490004214001439960D1
:1051B000533210789C6814490007000921400143CC
:1051C000996011789A6809091201090712090A43BE
:1051D0009A60D968802252000A43DA60D968802236
:1051E00092010A43DA60D968802252050A43FA2004
:1051F000DA60800000F0A6FBFFF79EFC10BDC04601
:10520000840C0020FFFFFEFFFFFFFFF008B5002029
:10521000FFF7BEFD08BD0000034B1B685C33187828
:10522000400001307047C046840C0020024B1B68D0
:105230005D3318787047C046840C002000487047E2
:105240000010005000487047002000500048704790
:1052500000400050064B1B685879064B02301B6813
:1052600042331B785843044B8000C0187047C04637
:10527000880C00200401002004400050F7B5194BB1
:10528000051C1C68A3795E1E10D36279013A0BD30A
:105290006179501C0231594341181348890009189B
:1052A0000868E8400860F1E7331CECE7FFF7D2FF3D
:1052B000637B002201339C466346013B9C460FD32F
:1052C000217B96000191861900230199994205D00E
:1052D0009F00F1590133E940F151F6E75218EBE72D
:1052E000F7BDC046880C002000400050064B1B68EC
:1052F0005879064B02301B684E331B785843044BD9
:105300008000C0187047C046880C002004010020AF
:1053100004400050074B1B68DA795879064B02307D
:105320001B68013246331B785843044B1018800029
:10533000C0187047880C0020040100200040005075
:1053400070B53C4B1D682A7853B2042B18D13A4BE8
:1053500019680B1C7E331E7802235D1E68D34A79C0
:10536000013A0BD34879541C023058432018334C6F
:10537000800000190468F4400460F1E72B1CECE79E
:10538000002A3ED0022B1AD1FBF782F8CC300378EA
:10539000294C002B02D023684C3302E0284B1B68B9
:1053A0005D331878FFF76AFF2368DB79002B28D07C
:1053B000FFF7B0FF8368C4680360446021E0032BFB
:1053C00003D11F4B1B68633318E0012B11D1FFF78A
:1053D0008DFF194B061C1B685C79013C11D32B19FE
:1053E00022331B789B009859FFF71EFDA300F05055
:1053F000F3E7052B05D1104B1B6881331878FFF7B5
:105400003DFF0F4B1B685A331B78002B10D00A4B03
:105410001A685379013B0BD3507994790230604379
:10542000591C091805488900091800200860F1E78F
:1054300070BDC04604010020880C002000400050D0
:10544000840C002008B5A0230120DB055870FFF76D
:105450009FFCFFF7C7FCFFF773FF08BD70B5041C86
:10546000104E114D11D10120FFF7F4FC33680122D9
:105470001A70A023DB056C705C701A70FFF7E2FFF6
:10548000FFF7B0FCFFF7EEFD0224201CFFF7E2FC63
:10549000336800221C70A023DB056A705A70012259
:1054A0001A7070BD040100206C0C002008B5FFF7D5
:1054B000D5FFFFF7C7FF08BD10B5A023DB051C6AA9
:1054C0000005064A000D010422400A431A621A6AC6
:1054D000120B12031043186210BDC046FFFF00F00C
:1054E00073B5164BA0221B68D2059168196D503315
:1054F00091601C78FFF74CFA114D002810D0114B29
:10550000114A1B7812782E6852B25BB20092201CAE
:105510001021D12201F0E6FE2B6830671B6FE418E2
:10552000002C01DA002402E0FF2C00DDFF242B68B0
:10553000E0B2DC66FFF7F1FD73BDC046840C0020CD
:1055400004010020530002005200020008B50028A8
:1055500001D0012801D100F0EFFDFFF7C1FFFFF7F7
:10556000FBFAFFF795FA08BD70B51F4B0D211B68BC
:10557000A0B09A7B00230C3AD2B291425B41032146
:10558000C91AA023DB0558693F2210405C688022BD
:10559000D20322435A60421EA023D2B2DB05FF2A67
:1055A00011D05E683F25114C15402D0434402C432A
:1055B0005C60C0460C1C243464001C5B6D465300C8
:1055C000EC52013AE8E75968094A0A4009495A6029
:1055D00002234870CB700320B3236A460B7101F09D
:1055E000A9FD20B070BDC046880C0020FFFFC0FFA1
:1055F000FFFFBFFF0C010020F7B5041C02F0ACF95F
:10560000124B1A6800235068411C0191019D1668D5
:105610009D420CDB976801367E4399008C469E19AB
:1056200000216546B600615101333151EEE7012397
:105630009E420ADB956800215D43AF002D180135BD
:10564000AD00395101332951F2E7F7BD00030020C5
:10565000044B054900221A6059609A6005221A60BD
:105660007047C04610E000E0FFFFFF0010B5A02328
:10567000DB059C6899680B4BC9B21B68E4031B6F80
:10568000E40F591AFF31E62359430134064BA04079
:10569000C918041C0548FAF72BFDC1B2201CFAF703
:1056A00027FD10BD040100205C5D000040420F009A
:1056B000014B00221A60704710E000E013B50B4C5C
:1056C0000B48A368C01A0193FFF7D0FF09490123D3
:1056D0004B7004230190CB7000206F2301AA0B7143
:1056E00001F028FD00230198236016BD10E000E0C2
:1056F000FFFFFF000C01002010B5041CFFF7A8FFFE
:10570000201CFFF7ABFEA023DB0501205870FFF73C
:1057100055FBFFF767FBFFF713FEFFF7CFFF10BD49
:10572000F7B5234800F00EF9FFF706FA214F0025E0
:10573000214E224CB7421FD28036F31B2026832BEA
:1057400000DC9E100123667000203A1C211CB6105C
:10575000E370207101F0EEFC3B1C321C013A08D3CF
:10576000002D04D116491868884200D01D1C04334E
:10577000F4E7B600BF19DBE70E4904226B1A0127D4
:105780000193E270A723211C01AA002067702371F6
:10579000843601F0CFFC0423751BE3700020A8239E
:1057A000211C01AA01956770237101F0C3FCF7BDAC
:1057B000801A0600B00C0020801B00200C01002085
:1057C000CDCDCDCD014B1B68587E70470401002024
:1057D00070B5051CFFF78AFD094B1C68637E9A00B3
:1057E000AD180022511ED218002A08D0E218521813
:1057F000927E920016588A00AE500A1CF2E770BDE5
:105800000401002030B50A4B1B685A7E94001C1915
:105810005300C01800230133D11A013106D09D0076
:10582000651B59006D6F49424552F4E730BDC046D3
:1058300004010020F8B50C1C051CFFF79DF8144965
:1058400008688379013B11D30E687279013AF9D364
:105850000E6870790F4E584336688018F61828186D
:10586000603607783679BE190670EFE70B68DB798A
:10587000013B08D3074AE15C1268D21878321279EA
:105880008A18E254F4E7281C211C00F0A7FEF8BD9A
:10589000880C0020840C0020134BF7B51C68694667
:1058A000E26800AF131C0E33DB08DB00C91A236962
:1058B0008D460E33DB08DB00C91A0C4B6D461E68A3
:1058C0008D467960281C311C03F0F8FEBA23FF33A3
:1058D000F1182269786803F0F1FE281C7968FFF757
:1058E000A9FFBD46F7BDC04600030020800C002084
:1058F000A023DB0518690006400F704738B5A023C8
:10590000DB0599689D680C4B041C1B680B481B6FDA
:10591000ED03C91AC943E623C9B25943084BED0F39
:10592000C918FAF7E5FB054B01355843211C2841FE
:10593000FAF7DEFB38BDC0460401002040420F00EC
:105940005C5D000038B5A023DB0599689C680A4BB4
:10595000051C1B6809481B6FE403C91AC943E623E9
:10596000C9B25943064BE40FC918FAF7C1FB6843A3
:105970000134204138BDC0460401002040420F00E0
:105980005C5D000008B5002807D0481006380123E8
:10599000132900DC0023C01806E00B2900DD0E39B6
:1059A000081C0321FAF7A4FB08BD0000F0B5C04BAA
:1059B000A9B01B68002502939B7B071C0C3B281C8D
:1059C000DBB20D229A426841BA4B03261B68361A95
:1059D00003963E68019347331E70019BC4B27868FA
:1059E0004A3304940DAC291C18706C22201C03F05F
:1059F000A7FEB14B0B951A680C95231C62CA62C3B3
:105A000023CA23C343CA43C3012124234B43221C7B
:105A1000E31861CA61C361CA61C361CA61C3039DFE
:105A20000131A942F1DB00260396341C029D6B79FB
:105A30009C424CDA029D04982B199D7B0BAE291CCD
:105A4000FFF7A0FF365C2422311C5143B446661C8C
:105A500006960B180DAEF6180596059B069E1E7150
:105A60001F2D08DC0DAE71180123CA68AB401D1C48
:105A70001543CD6011E00BAE335C0DA95A43203DB8
:105A800001238A18AB401D1C137E9906890E0D4315
:105A90003F210D408B431D431576019D3F23061C7E
:105AA0002A191E40059665465678A901059D9E4314
:105AB00035431D40634629430133039E5170DBB2D9
:105AC0000BAA13549E4200DA03930134AEE7019B04
:105AD000039E493300241E700294754B029C1B6880
